:100000000C943E000C945B000C945B000C945B0021
:100010000C945B000C945B000C945B000C945B00F4
:100020000C945B000C945B000C945B000C945B00E4
:100030000C945B000C945B000C945B000C945B00D4
:100040000C945B000C945B000C945B000C945B00C4
:100050000C9409020C945B000C945B000C945B0004
:100060000C945B000C945B000C945B000C945B00A4
:100070000C946D020C945B000C945B0011241FBE69
:10008000CFEFD0E1DEBFCDBF12E0A0E0B1E0E0E114
:10009000FBE002C005900D92A630B107D9F722E02F
:1000A000A6E0B2E001C01D92A13EB207E1F70E94B6
:1000B000A4020C9486050C9400001092C50081E8FF
:1000C0008093C400E1ECF0E0808188618083A2EC41
:1000D000B0E08C9186608C93808180688083E0ECB6
:1000E000F0E0808180688083789408951092CD003C
:1000F00081E88093CC00E9ECF0E080818861808326
:10010000AAECB0E08C9186608C93808180688083BB
:10011000E8ECF0E080818068808308959091C000D1
:1001200095FFFCCF8093C60008950F931F93CF9344
:10013000DF93EC018C01FE0101900020E9F731977B
:10014000EC1BFD0BC8018C1B9D0B8E179F0730F419
:10015000F80181918F010E948E00EDCFDF91CF9148
:100160001F910F9108958BB190E489278BB92FEFE0
:1001700088E09DE3215080409040E1F700C00000FE
:1001800088EA91E00E9495002FE784E89EE12150E3
:1001900080409040E1F700C000008EE991E00E94AD
:1001A00095002FE784E89EE1215080409040E1F7E0
:1001B00000C000008CE791E00E9495002FE784E8E2
:1001C0009EE1215080409040E1F700C0000083E3B1
:1001D00091E00E9495002FE784E89EE12150804045
:1001E0009040E1F700C000008FE191E00E9495008F
:1001F0008BB190E489278BB908950F931F93CF9308
:10020000DF93CDB7DEB7C757D1090FB6F894DEBF7D
:100210000FBECDBF2AE230E58EEF90E02150304096
:1002200080409040D9F70000CE0187599F4F2AE0C7
:10023000E0ECF1E0DC0101900D922A95E1F79E01DE
:100240002D583F4F45E0E2EEF1E0D90101900D92CB
:100250004A95E1F73F932F932DE031E03F932F93A1
:100260009F938F9389EB91E09F938F938E01025D13
:100270001F4F1F930F930E94B502C8010E94950063
:100280002AE230E58EEF90E02150304080409040EF
:10029000D9F70000CE01845B9F4F2FE0EAECF1E03C
:1002A000DC0101900D922A95E1F79E01255A3F4FFE
:1002B0004EE0E9EDF1E0D90101900D924A95E1F7A8
:1002C0003F932F932DE031E03F932F939F938F9394
:1002D00089EB91E09F938F930D5211091F930F9318
:1002E0000E94B502C8010E9495002FEF3AE187EB0A
:1002F000215030408040E1F700C000000FB6F89474
:10030000DEBF0FBECDBFC958DF4F0FB6F894DEBFBA
:100310000FBECDBFDF91CF911F910F9108950F9325
:100320001F93CF93DF93CDB7DEB7AD970FB6F89499
:10033000DEBF0FBECDBF87EE91E00E9495002FE794
:1003400084E89EE1215080409040E1F700C0000029
:100350008AE0E4EFF1E0DE015C9601900D928A956F
:10036000E1F788E0EEEFF1E0DE01969601900D9264
:100370008A95E1F7CE0186969F938F9380E091E076
:100380009F938F93CE014C969F938F9389EB91E02F
:100390009F938F938E010F5F1F4F1F930F930E94A8
:1003A000B502C8010E9495002FEF8AE197EB21501A
:1003B00080409040E1F700C0000081E090E0909321
:1003C0000902809308020FB6F894DEBF0FBECDBFBE
:1003D000AD960FB6F894DEBF0FBECDBFDF91CF91C3
:1003E0001F910F9108958BE10E948E0083E50E947A
:1003F0008E0080E30E948E0080916F020E948E002A
:100400008BE10E948E0085E40E948E008AE00C94AD
:100410008E001F920F920FB60F9211242F933F93CD
:100420004F938F939F93AF93BF93EF93FF938091DD
:10043000C60080930A02E0910602F09107028091C3
:100440000A02E458FD4F808340910A024A3051F578
:1004500080910602909107029C012F5F3F4F3093DD
:10046000070220930602FC01E458FD4F408380916F
:100470000602909107029C012F5F3F4F30930702C5
:1004800020930602FC01E458FD4F108210920702EF
:100490001092060284E6ECE7F2E0DF011D928A95F5
:1004A000E9F70DC080910A028D3049F08091060273
:1004B0009091070201969093070280930602FF91A4
:1004C000EF91BF91AF919F918F914F913F912F915C
:1004D0000F900FBE0F901F9018951F920F920FB69E
:1004E0000F9211242F933F934F935F936F937F93BA
:1004F0008F939F93AF93BF93EF93FF938091CE0021
:1005000080936F028091080290910902019711F483
:100510000E94F30110926F02FF91EF91BF91AF9192
:100520009F918F917F916F915F914F913F912F910B
:100530000F900FBE0F901F901895559A569A579A84
:100540005D985E985F9808950E949D020E945D00EC
:100550000E9476000E94B3000E94FD000E948F015D
:1005600090E28BB189278BB9FCCFAEE0B0E0EBEB2A
:10057000F2E00C945D050D891E8986E08C831A8358
:1005800009838FEF9FE79E838D83AE01475E5F4FA8
:100590006F89788DCE0101960E94D702EF81F88590
:1005A000E00FF11F10822E96E4E00C947905ACE088
:1005B000B0E0EDEDF2E00C944F057C016B018A0197
:1005C000FC0117821682838181FFBDC1CE01019695
:1005D0004C01F7019381F60193FD859193FF819181
:1005E0006F01882309F4ABC1853239F493FD8591FD
:1005F00093FF81916F01853229F4B70190E00E9449
:10060000BF04E7CF512C312C20E02032A0F48B32F4
:1006100069F030F4803259F0833269F420612CC0E3
:100620008D3239F0803339F4216026C02260246095
:1006300023C0286021C027FD27C030ED380F3A3095
:1006400078F426FF06C0FAE05F9E300D1124532E89
:1006500013C08AE0389E300D1124332E20620CC066
:100660008E3221F426FD6BC1206406C08C3611F455
:10067000206802C0883641F4F60193FD859193FF0E
:1006800081916F018111C1CF982F9F7D9554933037
:1006900028F40C5F1F4FFFE3F9830DC0833631F060
:1006A000833771F0833509F05BC022C0F801808187
:1006B00089830E5F1F4F44244394512C540115C06D
:1006C0003801F2E06F0E711CF801A080B18026FFA6
:1006D00003C0652D70E002C06FEF7FEFC5012C876E
:1006E0000E94B4042C0183012C852F77222E17C081
:1006F0003801F2E06F0E711CF801A080B18026FF76
:1007000003C0652D70E002C06FEF7FEFC5012C873D
:100710000E94A9042C012C852068222E830123FC31
:100720001BC0832D90E048165906B0F4B70180E253
:1007300090E00E94BF043A94F4CFF50127FC859124
:1007400027FE81915F01B70190E00E94BF04311044
:100750003A94F1E04F1A51084114510471F7E5C081
:10076000843611F0893639F5F80127FF07C060811A
:100770007181828193810C5F1F4F08C060817181FC
:10078000882777FD8095982F0E5F1F4F2F76B22E0A
:1007900097FF09C090958095709561957F4F8F4F19
:1007A0009F4F2068B22E2AE030E0A4010E94F1049D
:1007B000A82EA81844C0853729F42F7EB22E2AE02F
:1007C00030E025C0F22FF97FBF2E8F36C1F018F42C
:1007D000883579F0B4C0803719F0883721F0AFC080
:1007E0002F2F2061B22EB4FE0DC08B2D8460B82E49
:1007F00009C024FF0AC09F2F9660B92E06C028E0CA
:1008000030E005C020E130E002C020E132E0F80134
:10081000B7FE07C060817181828193810C5F1F4F99
:1008200006C06081718180E090E00E5F1F4FA401DF
:100830000E94F104A82EA818FB2DFF77BF2EB6FE4C
:100840000BC02B2D2E7FA51450F4B4FE0AC0B2FCB1
:1008500008C02B2D2E7E05C07A2C2B2D03C07A2CA0
:1008600001C0752C24FF0DC0FE01EA0DF11D808131
:10087000803311F4297E09C022FF06C0739473945B
:1008800004C0822F867809F0739423FD13C020FFE3
:1008900006C05A2C731418F4530C5718732C731485
:1008A00068F4B70180E290E02C870E94BF04739443
:1008B0002C85F5CF731410F4371801C0312C24FFA8
:1008C00012C0B70180E390E02C870E94BF042C8502
:1008D00022FF17C021FF03C088E590E002C088E72F
:1008E00090E0B7010CC0822F867859F021FD02C03C
:1008F00080E201C08BE227FD8DE2B70190E00E940B
:10090000BF04A51438F4B70180E390E00E94BF044F
:100910005A94F7CFAA94F401EA0DF11D8081B70132
:1009200090E00E94BF04A110F5CF332009F451CE0E
:10093000B70180E290E00E94BF043A94F6CFF7013D
:100940008681978102C08FEF9FEF2C96E2E10C9495
:100950006B05FC010590615070400110D8F780953F
:1009600090958E0F9F1F0895FC016150704001907B
:100970000110D8F7809590958E0F9F1F08950F93C3
:100980001F93CF93DF93182F092FEB018B8181FDEC
:1009900003C08FEF9FEF20C082FF10C04E815F81A8
:1009A0002C813D81421753077CF4E881F9819F0136
:1009B0002F5F3F4F39832883108306C0E885F98570
:1009C000812F0995892B29F72E813F812F5F3F4F7A
:1009D0003F832E83812F902FDF91CF911F910F9115
:1009E0000895FA01AA27283051F1203181F1E894C5
:1009F0006F936E7F6E5F7F4F8F4F9F4FAF4FB1E012
:100A00003ED0B4E03CD0670F781F891F9A1FA11D0C
:100A1000680F791F8A1F911DA11D6A0F711D811D0D
:100A2000911DA11D20D009F468943F912AE0269FD2
:100A300011243019305D3193DEF6CF010895462F31
:100A40004770405D4193B3E00FD0C9F7F6CF462F12
:100A50004F70405D4A3318F0495D31FD405241937B
:100A600002D0A9F7EACFB4E0A69597958795779538
:100A70006795BA95C9F700976105710508959B01BF
:100A8000AC010A2E06945795479537952795BA9548
:100A9000C9F7620F731F841F951FA01D08952F9221
:100AA0003F924F925F926F927F928F929F92AF92FE
:100AB000BF92CF92DF92EF92FF920F931F93CF934B
:100AC000DF93CDB7DEB7CA1BDB0B0FB6F894DEBFE2
:100AD0000FBECDBF09942A88398848885F846E8408
:100AE0007D848C849B84AA84B984C884DF80EE8052
:100AF000FD800C811B81AA81B981CE0FD11D0FB65B
:100B0000F894DEBF0FBECDBFED010895F894FFCF7E
:100B10003139322E3136382E34392E310037613AA0
:100B200066383A38323A63623A61333A30350041D6
:100B3000542B50325046494E443D353030302C32E3
:100B40000A0D0061742B7032707365747770733D99
:100B5000506F736974696F6E736D6F64756C2C3050
:100B60003030362C303030312C3131323233333476
:100B7000343535363637373838313132323333342D
:100B80003435353636373738380A0D0061742B70F6
:100B900032707365746465763D302C38312C313198
:100BA0002C31312C323338382C45550A0D00617404
:100BB0002B776D3D330A0D0061742B77727861637A
:100BC000746976653D310A0D002573257325730020
:100BD00061742B70327070643D0061742B703270E0
:100BE000677270666F726D3D002C362C302C2C3184
:100BF0002C302C300A0D0061742B6E646863703DDC
:100C0000310A0D0061742B6E637463703D002C38E3
:060C10003238380A0D0025
:00000001FF
