:100000000C943E000C945B000C945B000C945B0021
:100010000C945B000C945B000C945B000C945B00F4
:100020000C945B000C945B000C945B000C945B00E4
:100030000C945B000C945B000C945B000C945B00D4
:100040000C945B000C945B000C945B000C945B00C4
:100050000C945D010C945B000C945B000C945B00B1
:100060000C945B000C945B000C945B000C945B00A4
:100070000C945B000C945B000C945B0011241FBE7D
:10008000CFEFD0E1DEBFCDBF11E0A0E0B1E0E0E016
:10009000F4E002C005900D92A439B107D9F722E02F
:1000A000A4E9B1E001C01D92AD30B207E1F70E94B2
:1000B000CC010C94FE010C9400001092C50081E864
:1000C0008093C400E1ECF0E0808188618083A2EC41
:1000D000B0E08C9186608C93808180688083E0ECB6
:1000E000F0E0808180688083789408951092CD003C
:1000F00081E88093CC00E9ECF0E080818861808326
:10010000EAECF0E08081866080830895E0ECF0E026
:10011000908195FFFDCF8093C6000895E8ECF0E054
:10012000908195FFFDCF8093CE000895EF92FF92CE
:100130000F931F93CF93DF938C017C01C0E0D0E03D
:1001400006C0F70181917F010E9486002196F80187
:1001500001900020E9F73197E01BF10BCE17DF0784
:1001600080F3DF91CF911F910F91FF90EF90089551
:10017000EF92FF920F931F93CF93DF938C017C013B
:10018000C0E0D0E006C0F70181917F010E948E009F
:100190002196F80101900020E9F73197E01BF10B5F
:1001A000CE17DF0780F3DF91CF911F910F91FF9062
:1001B000EF9008959BB180E489278BB92FEF88E0F9
:1001C0009DE3215080409040E1F700C0000080E8AE
:1001D00091E00E9496002FE784E89EE12150804044
:1001E0009040E1F700C000008EE591E00E9496008B
:1001F0002FE784E89EE1215080409040E1F700C065
:10020000000085E191E00E9496002FE784E89EE1DE
:10021000215080409040E1F700C0000080E091E074
:100220000E9496009BB180E489278BB908950F93B3
:100230001F93CF93DF93CDB7DEB764970FB6F894D3
:10024000DEBF0FBECDBF8C0188E0EAE8F1E0DE0141
:100250001B9601900D928A95E1F71C8A1B8A47E054
:1002600050E0B801CE0101960E94EF018AE0898733
:100270001A86BE016F5F7F4FCE010B960E94E6018A
:10028000892B81F48BB180588BB9B801635F7F4FA4
:1002900042E050E08BEF91E00E94EF018BEF91E0A4
:1002A0000E94B80064960FB6F894DEBF0FBECDBFB3
:1002B000DF91CF911F910F9108951F920F920FB66A
:1002C0000F9211242F933F934F935F936F937F93DC
:1002D0008F939F93AF93BF93EF93FF938091C6004B
:1002E00080939601E0919401F0919501809196019F
:1002F000E956FE4F8083809196018A3079F580918E
:100300009401909195019C012F5F3F4F309395018F
:1003100020939401FC01E956FE4F2AE0208380914E
:100320009401909195019C012F5F3F4F309395016F
:1003300020939401FC01E956FE4F10821092950122
:100340001092940187E991E00E94170184E6E7E9A1
:10035000F1E0DF011D928A95E9F70DC080919601C9
:100360008D3049F080919401909195010196909380
:10037000950180939401FF91EF91BF91AF919F916F
:100380008F917F916F915F914F913F912F910F903E
:100390000FBE0F901F901895559A569A579A5D98D0
:1003A0005E985F980E945D000E9476000E94DA00CD
:1003B00090E28BB189278BB92FE734E88EE1215089
:1003C00030408040E1F700C00000F3CFFB01DC01CA
:1003D0008D91019080190110D9F3990B0895FB01BB
:1003E000DC014150504048F001900D920020C9F7C7
:1003F00001C01D9241505040E0F70895F894FFCF9E
:1004000041542B50325046494E443D32303030300A
:100410002C320A0D0061742B703270736574777022
:10042000733D506F736974696F6E736D6F64756C33
:100430002C303030362C303030312C3131323233B8
:100440003334343535363637373838313132323364
:1004500033343435353636373738380A0D00617461
:100460002B7032707365746465763D302C38312C96
:1004700031312C31312C323338382C45550A0D00AE
:1004800061742B776D3D330A0D007032702D6465F9
:0404900076000000F2
:00000001FF
