:100000000C943E000C945B000C945B000C945B0021
:100010000C945B000C945B000C945B000C945B00F4
:100020000C945B000C945B000C945B000C94DE035E
:100030000C945B000C945B000C945B000C945B00D4
:100040000C945B000C945B000C945B000C945B00C4
:100050000C949B020C945B000C945B000C945B0072
:100060000C945B000C945B000C945B000C945B00A4
:100070000C9449030C945B000C945B0011241FBE8C
:10008000CFEFD0E1DEBFCDBF12E0A0E0B1E0E6E609
:10009000FEE002C005900D92A431B107D9F724E02B
:1000A000A4E1B2E001C01D92AE3EB207E1F70E94AA
:1000B00037040C9431070C9400001092C50081E8BD
:1000C0008093C400E1ECF0E0808188618083A2EC41
:1000D000B0E08C9186608C93808180688083E0ECB6
:1000E000F0E0808180688083789408951092CD003C
:1000F00081E88093CC00E9ECF0E080818861808326
:10010000EAECF0E0808186608083E8ECF0E08081BA
:10011000806880830895E0ECF0E0908195FFFDCF4A
:100120008093C6000895EF92FF920F931F93CF9391
:10013000DF938C017C01C0E0D0E006C0F701819123
:100140007F010E948B002196F80101900020E9F7C1
:100150003197E01BF10BCE17DF0780F3DF91CF91D2
:100160001F910F91FF90EF9008959BB180E2892736
:100170008BB92FEF88E09DE3215080409040E1F75C
:1001800000C0000088E991E00E9493002FE784E816
:100190009EE1215080409040E1F700C000008EE8D1
:1001A00091E00E9493002FE784E89EE12150804077
:1001B0009040E1F700C000008CE691E00E949300BF
:1001C0002FE784E89EE1215080409040E1F700C095
:1001D000000083E291E00E9493002FE784E89EE113
:1001E000215080409040E1F700C000008FE091E096
:1001F0000E94930008950F931F93CF93DF93CDB781
:10020000DEB7C757D1090FB6F894DEBF0FBECDBF1A
:100210002AE230E58EEF90E021503040804090405F
:10022000D9F70000CE0187599F4F2AE0EEECF1E0AC
:10023000DC0101900D922A95E1F79E012D583F4F68
:1002400045E0E0EFF1E0D90101900D924A95E1F728
:100250003F932F932BED34E03F932F939F938F93F6
:1002600087EC91E09F938F938E01025D1F4F1F9348
:100270000F930E946004C8010E9493002AE230E5B7
:100280008EEF90E02150304080409040D9F7000040
:10029000CE01845B9F4F2FE0E8EDF1E0DC0101909F
:1002A0000D922A95E1F79E01255A3F4F4EE0E7EE69
:1002B000F1E0D90101900D924A95E1F73F932F9318
:1002C0002BED34E03F932F939F938F9387EC91E036
:1002D0009F938F930D5211091F930F930E946004F7
:1002E000C8010E9493002FEF3AE187EB2150304084
:1002F0008040E1F700C000000FB6F894DEBF0FBEEB
:10030000CDBFC958DF4F0FB6F894DEBF0FBECDBFCB
:10031000DF91CF911F910F9108950F931F93CF936A
:10032000DF93CDB7DEB7AD970FB6F894DEBF0FBE43
:10033000CDBF85EF91E00E9493002FE784E89EE116
:10034000215080409040E1F700C000008AE0E2E0E8
:10035000F2E0DE015C9601900D928A95E1F788E06B
:10036000ECE0F2E0DE01969601900D928A95E1F7BD
:10037000CE0186969F938F9382E091E09F938F9317
:10038000CE014C969F938F9387EC91E09F938F9330
:100390008E010F5F1F4F1F930F930E946004C801CF
:1003A0000E9493002FEF8AE197EB2150804090400C
:1003B000E1F700C000009BB180E289278BB90FB63E
:1003C000F894DEBF0FBECDBFAD960FB6F894DEBF7A
:1003D0000FBECDBFDF91CF911F910F9108950F9365
:1003E0001F93CF93DF93CDB7DEB76E970FB6F89418
:1003F000DEBF0FBECDBF8C0188E0E9EAF1E0DE018F
:100400001B9601900D928A95E1F71C8A1B8A88E061
:10041000E3EBF1E0DE01559601900D928A95E1F74C
:100420001E8E1D8E47E050E0B801CE0101960E945D
:1004300051048AE089871A86BE016F5F7F4FCE0123
:100440000B960E944804892B81F49BB180E4892794
:100450008BB9B801625F7F4F41E150E08BED94E0D2
:100460000E9451041092ED0418C0BE016F5F7F4FCF
:10047000CE0145960E944804892B79F49BB180E413
:1004800089278BB9B801665F7F4F41E150E08BED62
:1004900094E00E9451041092ED046E960FB6F89409
:1004A000DEBF0FBECDBFDF91CF911F910F91089599
:1004B0000F931F93CF93DF93CDB7DEB7CD5CD109F8
:1004C0000FB6F894DEBF0FBECDBFFE01E753FF4F5E
:1004D0002BE1208333E5318330E33283DE01A45303
:1004E000BF4F2C9325E411962C931197BF93AF9394
:1004F0009F938F93FF93EF9387EC91E09F938F935C
:100500008E010F5F1F4F1F930F930E946004C8015D
:100510000E9493000FB6F894DEBF0FBECDBFC35349
:10052000DF4F0FB6F894DEBF0FBECDBFDF91CF9186
:100530001F910F9108951F920F920FB60F921124E1
:100540002F933F934F935F936F937F938F939F93DB
:10055000AF93BF93EF93FF938091C60080931C02EB
:10056000E0911802F091190280911C02EA51FD4FAE
:10057000808380911C028A3079F5809118029091D5
:1005800019029C012F5F3F4F3093190220931802EC
:10059000FC01EA51FD4F2AE02083809118029091DE
:1005A00019029C012F5F3F4F3093190220931802CC
:1005B000FC01EA51FD4F10821092190210921802AC
:1005C00086EE92E00E94EF0184E6E6EEF2E0DF01C3
:1005D0001D928A95E9F70DC080911C028D3049F07B
:1005E00080911802909119020196909319028093BC
:1005F0001802FF91EF91BF91AF919F918F917F91E1
:100600006F915F914F913F912F910F900FBE0F907F
:100610001F9018950F931F93CF93DF93CDB7DEB73D
:1006200064970FB6F894DEBF0FBECDBF8C0186E095
:10063000EDEBF1E0DE011B9601900D928A95E1F75A
:10064000198A1A8A1B8A1C8A45E050E0B801CE013B
:1006500001960E9451041E82BE016F5F7F4FCE0142
:100660000B960E944804892B49F442E050E0B801FF
:1006700082E194E00E9451041092DA0464960FB66D
:10068000F894DEBF0FBECDBFDF91CF911F910F91C8
:1006900008951F920F920FB60F9211242F933F933C
:1006A0004F935F936F937F938F939F93AF93BF937A
:1006B000EF93FF9380911A0290911B020197E1F54D
:1006C000E0911602F09117028091CE00E35EFD4F9B
:1006D0008083E0911602F0911702E35EFD4F808166
:1006E0008A30C1F480911602909117029C012F5F0D
:1006F0003F4F3093170220931602FC01E35EFD4F3B
:10070000108210921702109216028DE192E00E9460
:100710000A0312C0E0911602F0911702E35EFD4F4A
:1007200080818D3049F080911602909117020196D8
:100730009093170280931602FF91EF91BF91AF91B2
:100740009F918F917F916F915F914F913F912F91E9
:100750000F900FBE0F901F901895559A569A579A62
:100760005D985E985F9A0895E9ECF0E0808180687A
:1007700080838BB180588BB92FE784E89EE12150AC
:1007800080409040E1F700C000008BB180588BB9E9
:1007900081E090E090931B0280931A0208951092DA
:1007A000640082E08093B10085E08093B200E0E7CE
:1007B000F0E0808181608083789408951F920F9289
:1007C0000FB60F9211242F933F934F935F936F9324
:1007D0007F938F939F93AF93BF93EF93FF938091FA
:1007E0001402909115020A9741F5809100019091B1
:1007F0000101019790930101809300018091000114
:1008000090910101892BA1F49BB180E489278BB9D8
:1008100080911A0290911B02019721F48DE192E0E0
:100820000E94580284E690E09093010180930001B9
:10083000109215021092140209C080911402909136
:10084000150201969093150280931402FF91EF9187
:10085000BF91AF919F918F917F916F915F914F91D8
:100860003F912F910F900FBE0F901F9018950E94EF
:10087000CF030E94AD030E945D000E9476000E949B
:10088000B5000E94FB000E948D010E94B403FFCFBF
:10089000FB01DC018D91019080190110D9F3990BB6
:1008A0000895FB01DC014150504048F001900D9249
:1008B0000020C9F701C01D9241505040E0F7089553
:1008C000AEE0B0E0E6E6F4E00C9408070D891E897E
:1008D00086E08C831A8309838FEF9FE79E838D8345
:1008E000AE01475E5F4F6F89788DCE0101960E9401
:1008F0008204EF81F885E00FF11F10822E96E4E06C
:100900000C942407ACE0B0E0E8E8F4E00C94FA06BC
:100910007C016B018A01FC0117821682838181FFB1
:10092000BDC1CE0101964C01F7019381F60193FD03
:10093000859193FF81916F01882309F4ABC18532C2
:1009400039F493FD859193FF81916F01853229F4EC
:10095000B70190E00E946A06E7CF512C312C20E0CD
:100960002032A0F48B3269F030F4803259F08332B7
:1009700069F420612CC08D3239F0803339F4216064
:1009800026C02260246023C0286021C027FD27C024
:1009900030ED380F3A3078F426FF06C0FAE05F9E5B
:1009A000300D1124532E13C08AE0389E300D1124CF
:1009B000332E20620CC08E3221F426FD6BC12064E0
:1009C00006C08C3611F4206802C0883641F4F60166
:1009D00093FD859193FF81916F018111C1CF982F74
:1009E0009F7D9554933028F40C5F1F4FFFE3F983EC
:1009F0000DC0833631F0833771F0833509F05BC069
:100A000022C0F801808189830E5F1F4F44244394E4
:100A1000512C540115C03801F2E06F0E711CF80121
:100A2000A080B18026FF03C0652D70E002C06FEF8B
:100A30007FEFC5012C870E945F062C0183012C8566
:100A40002F77222E17C03801F2E06F0E711CF801CB
:100A5000A080B18026FF03C0652D70E002C06FEF5B
:100A60007FEFC5012C870E9454062C012C8520683D
:100A7000222E830123FC1BC0832D90E048165906CB
:100A8000B0F4B70180E290E00E946A063A94F4CF95
:100A9000F50127FC859127FE81915F01B70190E068
:100AA0000E946A0631103A94F1E04F1A510841143D
:100AB000510471F7E5C0843611F0893639F5F80133
:100AC00027FF07C060817181828193810C5F1F4F76
:100AD00008C060817181882777FD8095982F0E5F0F
:100AE0001F4F2F76B22E97FF09C090958095709575
:100AF00061957F4F8F4F9F4F2068B22E2AE030E0E4
:100B0000A4010E949C06A82EA81844C0853729F489
:100B10002F7EB22E2AE030E025C0F22FF97FBF2EC3
:100B20008F36C1F018F4883579F0B4C0803719F0E9
:100B3000883721F0AFC02F2F2061B22EB4FE0DC038
:100B40008B2D8460B82E09C024FF0AC09F2F9660A9
:100B5000B92E06C028E030E005C020E130E002C038
:100B600020E132E0F801B7FE07C060817181828127
:100B700093810C5F1F4F06C06081718180E090E01F
:100B80000E5F1F4FA4010E949C06A82EA818FB2DE3
:100B9000FF77BF2EB6FE0BC02B2D2E7FA51450F471
:100BA000B4FE0AC0B2FC08C02B2D2E7E05C07A2CE4
:100BB0002B2D03C07A2C01C0752C24FF0DC0FE0123
:100BC000EA0DF11D8081803311F4297E09C022FFD6
:100BD00006C07394739404C0822F867809F07394CE
:100BE00023FD13C020FF06C05A2C731418F4530CB5
:100BF0005718732C731468F4B70180E290E02C87C7
:100C00000E946A0673942C85F5CF731410F437187C
:100C100001C0312C24FF12C0B70180E390E02C8783
:100C20000E946A062C8522FF17C021FF03C088E5B9
:100C300090E002C088E790E0B7010CC0822F867870
:100C400059F021FD02C080E201C08BE227FD8DE258
:100C5000B70190E00E946A06A51438F4B70180E35A
:100C600090E00E946A065A94F7CFAA94F401EA0D24
:100C7000F11D8081B70190E00E946A06A110F5CFB6
:100C8000332009F451CEB70180E290E00E946A0659
:100C90003A94F6CFF7018681978102C08FEF9FEFDC
:100CA0002C96E2E10C941607FC010590615070400F
:100CB0000110D8F7809590958E0F9F1F0895FC0125
:100CC0006150704001900110D8F7809590958E0F7B
:100CD0009F1F08950F931F93CF93DF93182F092F12
:100CE000EB018B8181FD03C08FEF9FEF20C082FF5E
:100CF00010C04E815F812C813D81421753077CF4E7
:100D0000E881F9819F012F5F3F4F3983288310834A
:100D100006C0E885F985812F0995892B29F72E8151
:100D20003F812F5F3F4F3F832E83812F902FDF9195
:100D3000CF911F910F910895FA01AA27283051F100
:100D4000203181F1E8946F936E7F6E5F7F4F8F4FFC
:100D50009F4FAF4FB1E03ED0B4E03CD0670F781F5B
:100D6000891F9A1FA11D680F791F8A1F911DA11D40
:100D70006A0F711D811D911DA11D20D009F4689479
:100D80003F912AE0269F11243019305D3193DEF621
:100D9000CF010895462F4770405D4193B3E00FD0D7
:100DA000C9F7F6CF462F4F70405D4A3318F0495DC2
:100DB00031FD4052419302D0A9F7EACFB4E0A695A5
:100DC0009795879577956795BA95C9F700976105C7
:100DD000710508959B01AC010A2E0694579547951D
:100DE00037952795BA95C9F7620F731F841F951F12
:100DF000A01D08952F923F924F925F926F927F9223
:100E00008F929F92AF92BF92CF92DF92EF92FF921A
:100E10000F931F93CF93DF93CDB7DEB7CA1BDB0BC6
:100E20000FB6F894DEBF0FBECDBF09942A8839886B
:100E300048885F846E847D848C849B84AA84B98472
:100E4000C884DF80EE80FD800C811B81AA81B9817E
:100E5000CE0FD11D0FB6F894DEBF0FBECDBFED0192
:060E60000895F894FFCF95
:100E660064003139322E3136382E34392E31004174
:100E7600542B50325046494E443D353030302C329A
:100E86000A0D0061742B7032707365747770733D50
:100E9600506F736974696F6E736D6F64756C2C3007
:100EA6003030362C303030312C313132323333342D
:100EB60034353536363737383831313232333334E4
:100EC6003435353636373738380A0D0061742B70AD
:100ED60032707365746465763D302C38312C31314F
:100EE6002C31312C323338382C45550A0D006174BB
:100EF6002B776D3D330A0D0061742B777278616331
:100F0600746976653D310A0D007032702D64657620
:100F16000000007032762D666F750000004750475E
:100F26004741000000000025732573257300617496
:100F36002B70327070643D0061742B703270677272
:100F460070666F726D3D002C362C302C2C312C3097
:100F56002C300A0D0061742B6E646863703D310A93
:100F66000D0061742B6E637463703D002C3832384B
:040F7600380A0D0028
:00000001FF
