S0160000506F736974696F6E736D6F64756C2E7372656325
S11300000C943E000C945B000C945B000C945B001D
S11300100C945B000C945B000C945B000C945B00F0
S11300200C945B000C945B000C945B000C945B00E0
S11300300C945B000C945B000C945B000C945B00D0
S11300400C945B000C945B000C945B000C945B00C0
S11300500C941A010C945B000C945B000C945B00F0
S11300600C945B000C945B000C945B000C945B00A0
S11300700C945B000C945B000C945B0011241FBE79
S1130080CFEFD0E1DEBFCDBF11E0A0E0B1E0E2E20E
S1130090F3E002C005900D92AA38B107D9F722E027
S11300A0AAE8B1E001C01D92A330B207E1F70E94B3
S11300B075010C948F010C9400001092C50081E826
S11300C08093C400E1ECF0E0808188618083A2EC3D
S11300D0B0E08C9186608C93808180688083E0ECB2
S11300E0F0E0808180688083789408951092CD0038
S11300F081E88093CC00E9ECF0E080818861808322
S1130100EAECF0E08081866080830895E0ECF0E022
S1130110908195FFFDCF8093C6000895E8ECF0E050
S1130120908195FFFDCF8093CE000895EF92FF92CA
S11301300F931F93CF93DF938C017C01C0E0D0E039
S113014006C0F70181917F010E9486002196F80183
S113015001900020E9F73197E01BF10BCE17DF0780
S113016080F3DF91CF911F910F91FF90EF9008954D
S1130170EF92FF920F931F93CF93DF938C017C0137
S1130180C0E0D0E006C0F70181917F010E948E009B
S11301902196F80101900020E9F73197E01BF10B5B
S11301A0CE17DF0780F3DF91CF911F910F91FF905E
S11301B0EF9008959BB180E489278BB92FEF38E045
S11301C08DE3215030408040E1F700C0000080E81A
S11301D091E00E94960094E520EA3CEF81E0915082
S11301E0204030408040D9F700C000C000008EE5B8
S11301F091E00E9496009FE724E83EE19150204060
S11302003040E1F700C0000085E191E00E949600D3
S11302108FE794E82EE1815090402040E1F700C040
S1130220000080E091E00E9496009BB180E4892761
S11302308BB908951F920F920FB60F9211242F932A
S11302403F934F935F936F937F938F939F93AF935A
S1130250BF93EF93FF938091C60080938C01E0914C
S11302608A01F0918B0180918C01E357FE4F8083CA
S113027080918C018A30F9F480918A0190918B01EC
S11302809C012F5F3F4F30938B0120938A01FC0127
S1130290E357FE4F108210928B0110928A018DE871
S11302A091E00E94B80084E6EDE8F1E0DF011D92E0
S11302B08A95E9F709C080918A0190918B01019692
S11302C090938B0180938A01FF91EF91BF91AF913D
S11302D09F918F917F916F915F914F913F912F915A
S11302E00F900FBE0F901F901895559A569A579AD3
S11302F05D985E985F980E945D000E9476000E945F
S1130300DA0090E28BB189278BB92FE734E88EE1CC
S1130310215030408040E1F700C00000F3CFF89452
S1050320FFCF09
S113032241542B50325046494E443D3230303030E5
S11303322C320A0D0061742B7032707365747770FD
S1130342733D506F736974696F6E736D6F64756C0E
S11303522C303030362C303030312C313132323393
S1130362333434353536363737383831313232333F
S113037233343435353636373738380A0D0061743C
S11303822B7032707365746465763D302C38312C71
S113039231312C31312C323338382C45550A0D0089
S10D03A261742B776D3D330A0D00E2
S9030000FC
