:100000000C943E000C9448000C9448000C9448005A
:100010000C9448000C9448000C9448000C94480040
:100020000C9448000C9448000C9448000C94480030
:100030000C9448000C9448000C9448000C94480020
:100040000C9448000C9448000C9448000C94480010
:100050000C9448000C9448000C9448000C94480000
:100060000C9448000C9448000C9448000C944800F0
:100070000C9448000C9448000C94480011241FBEB6
:10008000CFEFD0E1DEBFCDBF0E946E000C948200A6
:100090000C94000082E88093C50084E38093C40040
:1000A000E1ECF0E0808188618083A2ECB0E08C918B
:1000B00086608C93808180688083E0ECF0E08081B2
:1000C000806880835098519A78940895E0ECF0E02D
:1000D000908195FFFDCF8093C6000895559A0E94A8
:1000E0004A00C0E281E60E9466008BB18C278BB982
:1000F0002FEF88E09DE3215080409040E1F700C061
:080100000000F0CFF894FFCFDE
:00000001FF
