:100000000C943E000C945B000C945B000C945B0021
:100010000C945B000C945B000C945B000C945B00F4
:100020000C945B000C945B000C945B000C945B00E4
:100030000C945B000C945B000C945B000C945B00D4
:100040000C945B000C945B000C945B000C945B00C4
:100050000C94A7020C945B000C945B000C945B0066
:100060000C945B000C945B000C945B000C945B00A4
:100070000C941A030C945B000C945B0011241FBEBB
:10008000CFEFD0E1DEBFCDBF12E0A0E0B1E0ECE207
:10009000FDE002C005900D92AE30B107D9F723E024
:1000A000AEE0B2E001C01D92A335B207E1F70E94B5
:1000B0008D030C9494060C9400001092C50081E806
:1000C0008093C400E1ECF0E0808188618083A2EC41
:1000D000B0E08C9186608C93808180688083E0ECB6
:1000E000F0E0808180688083789408951092CD003C
:1000F00081E88093CC00E9ECF0E080818861808326
:10010000EAECF0E080818660808378940895909195
:10011000C00095FD06C0E0ECF0E05F9A908195FF8D
:10012000FCCF5F988093C6000895E8ECF0E09081E2
:1001300095FFFDCF8093CE000895EF92FF920F932D
:100140001F93CF93DF938C017C01C0E0D0E006C009
:10015000F70181917F010E9487002196F8010190AB
:100160000020E9F73197E01BF10BCE17DF0780F392
:10017000DF91CF911F910F91FF90EF9008959BB168
:1001800080E489278BB92FEF88E09DE321508040E0
:100190009040E1F700C0000086E991E00E949D00D8
:1001A0002FE784E89EE1215080409040E1F700C0B5
:1001B00000008CE891E00E949D002FE784E89EE11A
:1001C000215080409040E1F700C000008AE691E0B5
:1001D0000E949D002FE784E89EE1215080409040DE
:1001E000E1F700C0000081E291E00E949D002FE74E
:1001F00084E89EE1215080409040E1F700C000007B
:100200008DE091E00E949D009BB180E489278BB92D
:1002100008950F931F93CF93DF93CDB7DEB7C757E2
:10022000D1090FB6F894DEBF0FBECDBF2AE230E58C
:100230008EEF90E02150304080409040D9F7000090
:10024000CE0187599F4F2AE0E2ECF1E0DC010190FA
:100250000D922A95E1F79E012D583F4F45E0E4EEBF
:10026000F1E0D90101900D924A95E1F73F932F9368
:1002700020E433E03F932F939F938F938BEB91E098
:100280009F938F938E01025D1F4F1F930F930E94C8
:10029000C303C8010E949D002AE230E58EEF90E082
:1002A0002150304080409040D9F70000CE01845B5F
:1002B0009F4F2FE0ECECF1E0DC0101900D922A95CC
:1002C000E1F79E01255A3F4F4EE0EBEDF1E0D901F9
:1002D00001900D924A95E1F73F932F9320E433E08C
:1002E0003F932F939F938F938BEB91E09F938F93EB
:1002F0000D5211091F930F930E94C303C8010E945E
:100300009D002FEF3AE187EB215030408040E1F72C
:1003100000C000000FB6F894DEBF0FBECDBFC958B5
:10032000DF4F0FB6F894DEBF0FBECDBFDF91CF9188
:100330001F910F9108950F931F93CF93DF93CDB724
:10034000DEB7AD970FB6F894DEBF0FBECDBF89EE16
:1003500091E00E949D002FE784E89EE121508040BB
:100360009040E1F700C000008AE0E6EFF1E0DE0136
:100370005C9601900D928A95E1F788E0E0E0F2E06A
:10038000DE01969601900D928A95E1F7CE01869650
:100390009F938F9380E091E09F938F93CE014C9633
:1003A0009F938F938BEB91E09F938F938E010F5FC1
:1003B0001F4F1F930F930E94C303C8010E949D000B
:1003C0002FEF8AE197EB215080409040E1F700C089
:1003D00000000FB6F894DEBF0FBECDBFAD960FB6CE
:1003E000F894DEBF0FBECDBFDF91CF911F910F916B
:1003F00008950F931F93CF93DF93CDB7DEB76E971A
:100400000FB6F894DEBF0FBECDBF8C0188E0E7EADF
:10041000F1E0DE011B9601900D928A95E1F71C8AAE
:100420001B8A88E0E1EBF1E0DE01559601900D9228
:100430008A95E1F71E8E1D8E47E050E0B801CE018F
:1004400001960E94B4038AE089871A86BE016F5F15
:100450007F4FCE010B960E94AB03892B79F48BB1B1
:1004600080588BB9B801625F7F4F41E150E080E472
:1004700093E00E94B4031092520317C0BE016F5F55
:100480007F4FCE0145960E94AB03892B71F48BB14F
:1004900080588BB9B801665F7F4F41E150E080E43E
:1004A00093E00E94B403109252036E960FB6F89434
:1004B000DEBF0FBECDBFDF91CF911F910F91089589
:1004C0000F931F93CF93DF93CDB7DEB767970FB628
:1004D000F894DEBF0FBECDBF5E9A8BE18D8793E5AA
:1004E0009E8790E39F8796E0E8E0F2E0DE01509679
:1004F00001900D929A95E1F78E8B85E48F8BCE015A
:1005000046969F938F9306979F938F9303979F93FE
:100510008F938BEB91E09F938F938E010F5F1F4F13
:100520001F930F930E94C303C8010E949D000FB642
:10053000F894DEBF0FBECDBF67960FB6F894DEBF4E
:100540000FBECDBFDF91CF911F910F9108951F92E4
:100550000F920FB60F9211242F933F934F935F93F7
:100560006F937F938F939F93AF93BF93EF93FF937B
:100570008091C60080931202809112020E94950021
:10058000E0911002F091110280911202E452FD4FAD
:100590008083809112028A3079F5809110029091C7
:1005A00011029C012F5F3F4F3093110220931002E4
:1005B000FC01E452FD4F2AE02083809110029091CB
:1005C00011029C012F5F3F4F3093110220931002C4
:1005D000FC01E452FD4F10821092110210921002A1
:1005E0008CED92E00E94F90184E6ECEDF2E0DF018F
:1005F0001D928A95E9F70DC0809112028D3049F065
:1006000080911002909111020196909311028093B3
:100610001002FF91EF91BF91AF919F918F917F91C8
:100620006F915F914F913F912F910F900FBE0F905F
:100630001F9018951F920F920FB60F9211242F93AF
:100640003F934F935F936F937F938F939F93AF935A
:10065000BF93EF93FF938091CE008093DB02809154
:10066000DB020E949500E0910E02F0910F02809152
:10067000DB02ED5EFD4F80838091DB028A3079F5ED
:1006800080910E0290910F029C012F5F3F4F30939B
:100690000F0220930E02FC01ED5EFD4F2AE0208345
:1006A00080910E0290910F029C012F5F3F4F30937B
:1006B0000F0220930E02FC01ED5EFD4F108210929E
:1006C0000F0210920E0283E192E00E94600288EC19
:1006D000E3E1F2E0DF011D928A95E9F70DC0809118
:1006E000DB028D3049F080910E0290910F0201964D
:1006F00090930F0280930E02FF91EF91BF91AF9103
:100700009F918F917F916F915F914F913F912F9129
:100710000F900FBE0F901F901895559A569A579AA2
:100720005D985E985F980E945D000E9476000E942E
:10073000BF000E9409010E949B0190E28BB18927B2
:100740008BB92FE734E88EE1215030408040E1F74B
:1007500000C00000F3CFFB01DC018D9101908019F6
:100760000110D9F3990B0895FB01DC014150504071
:1007700048F001900D920020C9F701C01D92415030
:100780005040E0F70895AEE0B0E0E9ECF3E00C94FF
:100790006B060D891E8986E08C831A8309838FEF8F
:1007A0009FE79E838D83AE01475E5F4F6F89788D93
:1007B000CE0101960E94E503EF81F885E00FF11F5D
:1007C00010822E96E4E00C948706ACE0B0E0EBEEED
:1007D000F3E00C945D067C016B018A01FC01178239
:1007E0001682838181FFBDC1CE0101964C01F701C4
:1007F0009381F60193FD859193FF81916F01882389
:1008000009F4ABC1853239F493FD859193FF819151
:100810006F01853229F4B70190E00E94CD05E7CF42
:10082000512C312C20E02032A0F48B3269F030F4CE
:10083000803259F0833269F420612CC08D3239F056
:10084000803339F4216026C02260246023C02860F0
:1008500021C027FD27C030ED380F3A3078F426FF4D
:1008600006C0FAE05F9E300D1124532E13C08AE0BB
:10087000389E300D1124332E20620CC08E3221F4AC
:1008800026FD6BC1206406C08C3611F4206802C0BE
:10089000883641F4F60193FD859193FF81916F01B4
:1008A0008111C1CF982F9F7D9554933028F40C5F10
:1008B0001F4FFFE3F9830DC0833631F0833771F0AA
:1008C000833509F05BC022C0F801808189830E5F07
:1008D0001F4F44244394512C540115C03801F2E0B9
:1008E0006F0E711CF801A080B18026FF03C0652D3A
:1008F00070E002C06FEF7FEFC5012C870E94C20538
:100900002C0183012C852F77222E17C03801F2E0AD
:100910006F0E711CF801A080B18026FF03C0652D09
:1009200070E002C06FEF7FEFC5012C870E94B70512
:100930002C012C852068222E830123FC1BC0832DD3
:1009400090E048165906B0F4B70180E290E00E94AA
:10095000CD053A94F4CFF50127FC859127FE8191CE
:100960005F01B70190E00E94CD0531103A94F1E0AB
:100970004F1A51084114510471F7E5C0843611F043
:10098000893639F5F80127FF07C0608171818281BE
:1009900093810C5F1F4F08C060817181882777FDAC
:1009A0008095982F0E5F1F4F2F76B22E97FF09C0AC
:1009B00090958095709561957F4F8F4F9F4F2068E0
:1009C000B22E2AE030E0A4010E94FF05A82EA8184C
:1009D00044C0853729F42F7EB22E2AE030E025C0AE
:1009E000F22FF97FBF2E8F36C1F018F4883579F0D9
:1009F000B4C0803719F0883721F0AFC02F2F2061A5
:100A0000B22EB4FE0DC08B2D8460B82E09C024FF19
:100A10000AC09F2F9660B92E06C028E030E005C0BE
:100A200020E130E002C020E132E0F801B7FE07C06B
:100A300060817181828193810C5F1F4F06C060814C
:100A4000718180E090E00E5F1F4FA4010E94FF05BE
:100A5000A82EA818FB2DFF77BF2EB6FE0BC02B2D9E
:100A60002E7FA51450F4B4FE0AC0B2FC08C02B2D92
:100A70002E7E05C07A2C2B2D03C07A2C01C0752C3C
:100A800024FF0DC0FE01EA0DF11D8081803311F4B9
:100A9000297E09C022FF06C07394739404C0822F7C
:100AA000867809F0739423FD13C020FF06C05A2CEA
:100AB000731418F4530C5718732C731468F4B7019B
:100AC00080E290E02C870E94CD0573942C85F5CFB1
:100AD000731410F4371801C0312C24FF12C0B70171
:100AE00080E390E02C870E94CD052C8522FF17C063
:100AF00021FF03C088E590E002C088E790E0B701DD
:100B00000CC0822F867859F021FD02C080E201C01E
:100B10008BE227FD8DE2B70190E00E94CD05A51480
:100B200038F4B70180E390E00E94CD055A94F7CFE6
:100B3000AA94F401EA0DF11D8081B70190E00E94B2
:100B4000CD05A110F5CF332009F451CEB70180E2D5
:100B500090E00E94CD053A94F6CFF7018681978107
:100B600002C08FEF9FEF2C96E2E10C947906FC0116
:100B70000590615070400110D8F7809590958E0FC8
:100B80009F1F0895FC016150704001900110D8F73B
:100B9000809590958E0F9F1F08950F931F93CF936D
:100BA000DF93182F092FEB018B8181FD03C08FEF9D
:100BB0009FEF20C082FF10C04E815F812C813D815C
:100BC000421753077CF4E881F9819F012F5F3F4F63
:100BD00039832883108306C0E885F985812F09951C
:100BE000892B29F72E813F812F5F3F4F3F832E8333
:100BF000812F902FDF91CF911F910F910895FA01CE
:100C0000AA27283051F1203181F1E8946F936E7F4B
:100C10006E5F7F4F8F4F9F4FAF4FB1E03ED0B4E03C
:100C20003CD0670F781F891F9A1FA11D680F791F7D
:100C30008A1F911DA11D6A0F711D811D911DA11D8E
:100C400020D009F468943F912AE0269F112430199E
:100C5000305D3193DEF6CF010895462F4770405D39
:100C60004193B3E00FD0C9F7F6CF462F4F70405DE8
:100C70004A3318F0495D31FD4052419302D0A9F743
:100C8000EACFB4E0A6959795879577956795BA953D
:100C9000C9F700976105710508959B01AC010A2E03
:100CA00006945795479537952795BA95C9F7620FDA
:100CB000731F841F951FA01D08952F923F924F927E
:100CC0005F926F927F928F929F92AF92BF92CF92DC
:100CD000DF92EF92FF920F931F93CF93DF93CDB7E5
:100CE000DEB7CA1BDB0B0FB6F894DEBF0FBECDBF5D
:100CF00009942A88398848885F846E847D848C842E
:100D00009B84AA84B984C884DF80EE80FD800C8136
:100D10001B81AA81B981CE0FD11D0FB6F894DEBF19
:0C0D20000FBECDBFED010895F894FFCF89
:100D2C003139322E3136382E34392E310041542B94
:100D3C0050325046494E443D353030302C320A0D3D
:100D4C000061742B7032707365747770733D506FE3
:100D5C00736974696F6E736D6F64756C2C303030A1
:100D6C00362C303030312C3131323233333434355F
:100D7C00353636373738383131323233333434351F
:100D8C00353636373738380A0D0061742B703270AF
:100D9C007365746465763D302C38312C31312C31CF
:100DAC00312C323338382C45550A0D0061742B77B1
:100DBC006D3D330A0D0061742B7772786163746931
:100DCC0076653D310A0D007032702D646576000039
:100DDC00007032762D666F75000000257325732523
:100DEC00730061742B70327070643D0061742B70F1
:100DFC003270677270666F726D3D002C362C302C21
:100E0C002C312C302C300A0D0061742B6E6468630D
:100E1C00703D310A0D0061742B6E637463703D007C
:0E0E2C002C383238380A0D0048656C6C6F00A7
:00000001FF
