S0160000506F736974696F6E736D6F64756C2E7372656325
S11300000C943E000C945B000C945B000C945B001D
S11300100C945B000C945B000C945B000C945B00F0
S11300200C945B000C945B000C945B000C945B00E0
S11300300C945B000C945B000C945B000C945B00D0
S11300400C945B000C945B000C945B000C945B00C0
S11300500C94D0000C945B000C945B000C945B003B
S11300600C945B000C945B000C945B000C945B00A0
S11300700C945B000C945B000C945B0011241FBE79
S1130080CFEFD0E1DEBFCDBF11E0A0E0B1E0E6EFFD
S1130090F1E002C005900D92A630B107D9F721E036
S11300A0A6E0B1E001C01D92A730B207E1F70E94BB
S11300B0E0000C94F9000C9400001092C50081E853
S11300C08093C400E1ECF0E0808188618083A2EC3D
S11300D0B0E08C9186608C93808180688083E0ECB2
S11300E0F0E08081806880835098519A78940895D4
S11300F01092CD0081E88093CC00E9ECF0E080819F
S113010088618083AAECB0E08C9186608C938081B6
S113011080688083E8ECF0E08081806880830895C3
S1130120E0ECF0E0908195FFFDCF8093C600089548
S1130130E8ECF0E0908195FFFDCF8093CE00089528
S1130140CF92DF92EF92FF920F931F93CF93DF939F
S11301506C017B018B01C0E0D0E00FC0C114D1045D
S113016029F4F80180810E94900004C0F801808184
S11301700E94980021960F5F1F4FF7010190002005
S1130180E9F73197EE19FF09CE17DF0738F3DF914E
S1130190CF911F910F91FF90EF90DF90CF90089532
S11301A01F920F920FB60F9211248F938091C60065
S11301B0809306018F910F900FBE0F901F9018959A
S11301C0559A0E945D000E947800C0E260E071E0F0
S11301D081E090E00E94A0008BB18C278BB92FEFB7
S11301E088E09DE3215080409040E1F700C000008A
S10901F0EDCFF894FFCFEF
S10901F6544553540000BF
S9030000FC
