:100000000C943E000C945B000C945B000C945B0021
:100010000C945B000C945B000C945B000C945B00F4
:100020000C945B000C945B000C945B000C945B00E4
:100030000C945B000C945B000C945B000C945B00D4
:100040000C945B000C945B000C945B000C945B00C4
:100050000C94E1000C945B000C945B000C945B002E
:100060000C945B000C945B000C945B000C945B00A4
:100070000C945B000C945B000C945B0011241FBE7D
:10008000CFEFD0E1DEBFCDBF11E0A0E0B1E0E4E40E
:10009000F2E002C005900D92AA38B107D9F721E02D
:1000A000AAE8B1E001C01D92AB38B207E1F70E94A7
:1000B0000B010C9420010C9400001092C50081E803
:1000C0008093C400E1ECF0E0808188618083A2EC41
:1000D000B0E08C9186608C93808180688083E0ECB6
:1000E000F0E08081806880835098519A78940895D8
:1000F0001092CD0081E88093CC00E9ECF0E08081A3
:1001000088618083AAECB0E08C9186608C938081BA
:1001100080688083E8ECF0E08081806880830895C7
:10012000E0ECF0E0908195FFFDCF8093C60008954C
:10013000E8ECF0E0908195FFFDCF8093CE0008952C
:10014000CF93DF93EC0188810E94900089810E9407
:100150009000DF91CF9108952FEF88E09DE321502B
:1001600080409040E1F700C0000080E891E00E94EC
:10017000A0002FE784E89EE1215080409040E1F705
:1001800000C000008EE591E00E94A0002FE784E807
:100190009EE1215080409040E1F700C0000085E1E1
:1001A00091E00E94A0002FE784E89EE1215080406A
:1001B0009040E1F700C0000080E091E00E94A000C4
:1001C00008951F920F920FB60F9211242F933F9311
:1001D0004F935F936F937F938F939F93AF93BF934F
:1001E000EF93FF938091C60080938A0180918A01EA
:1001F0000E949800FF91EF91BF91AF919F918F91D5
:100200007F916F915F914F913F912F910F900FBE12
:100210000F901F901895559A0E945D000E947800DB
:100220000E94AC0090E28BB189278BB92FEF38E0A8
:100230008DE3215030408040E1F700C00000F3CF53
:04024000F894FFCF60
:1002440041542B50325046494E443D3230303030C8
:100254002C320A0D0061742B7032707365747770E0
:10026400733D506F736974696F6E736D6F64756CF1
:100274002C303030362C303030312C313132323376
:100284003334343535363637373838313132323322
:1002940033343435353636373738380A0D0061741F
:1002A4002B7032707365746465763D302C38312C54
:1002B40031312C31312C323338382C45550A0D006C
:0A02C40061742B776D3D330A0D00C5
:00000001FF
