S0160000506F736974696F6E736D6F64756C2E7372656325
S11300000C943E000C945B000C945B000C945B001D
S11300100C945B000C945B000C945B000C945B00F0
S11300200C945B000C945B000C945B000C945B00E0
S11300300C945B000C945B000C945B000C945B00D0
S11300400C945B000C945B000C945B000C945B00C0
S11300500C9485020C945B000C945B000C945B0084
S11300600C945B000C945B000C945B000C945B00A0
S11300700C94F4020C945B000C945B0011241FBEDE
S1130080CFEFD0E1DEBFCDBF12E0A0E0B1E0E8E405
S1130090FCE002C005900D92A431B107D9F723E02A
S11300A0A4E1B2E001C01D92A636B207E1F70E94B6
S11300B024030C9422060C9400001092C50081E8DD
S11300C08093C400E1ECF0E0808188618083A2EC3D
S11300D0B0E08C9186608C93808180688083E0ECB2
S11300E0F0E0808180688083789408951092CD0038
S11300F081E88093CC00E9ECF0E080818861808322
S1130100AAECB0E08C9186608C93808180688083B7
S11301108091C80078940895E0ECF0E0908195FF18
S1130120FDCF8093C6000895EF92FF920F931F9323
S1130130CF93DF938C017C01C0E0D0E006C0F701CF
S113014081917F010E948C002196F801019000208A
S1130150E9F73197E01BF10BCE17DF0780F3DF914E
S1130160CF911F910F91FF90EF9008959BB180E480
S113017089278BB92FEF88E09DE321508040904080
S1130180E1F700C000008BE991E00E9494002FE7A2
S113019084E89EE1215080409040E1F700C00000D7
S11301A081E991E00E9494002FE784E89EE12150C8
S11301B080409040E1F700C000008FE691E00E948B
S11301C094002FE784E89EE1215080409040E1F7BD
S11301D000C0000086E291E00E9494002FE784E8CA
S11301E09EE1215080409040E1F700C0000082E190
S11301F091E00E9494009BB180E489278BB9089513
S11302000F931F93CF93DF93CDB7DEB7C757D109B1
S11302100FB6F894DEBF0FBECDBF2AE230E58EEFF5
S113022090E02150304080409040D9F70000CE014A
S113023087599F4F2AE0E7ECF1E0DC0101900D9231
S11302402A95E1F79E012D583F4F45E0E9EEF1E094
S1130250D90101900D924A95E1F73F932F9323E53D
S113026033E03F932F939F938F9380EC91E09F9380
S11302708F938E01025D1F4F1F930F930E945103B2
S1130280C8010E9494002AE230E58EEF90E02150EC
S1130290304080409040D9F70000CE01845B9F4FEE
S11302A02FE0E1EDF1E0DC0101900D922A95E1F7F8
S11302B09E01255A3F4F4EE0E0EEF1E0D901019056
S11302C00D924A95E1F73F932F9323E533E03F9353
S11302D02F939F938F9380EC91E09F938F930D5274
S11302E011091F930F930E945103C8010E949400A7
S11302F02FEF3AE187EB215030408040E1F700C016
S113030000000FB6F894DEBF0FBECDBFC958DF4F53
S11303100FB6F894DEBF0FBECDBFDF91CF911F9112
S11303200F9108950F931F93CF93DF93CDB7DEB74B
S1130330AD970FB6F894DEBF0FBECDBF8EEE91E041
S11303400E9494002FE784E89EE121508040904071
S1130350E1F700C000008AE0EBEFF1E0DE015C961B
S113036001900D928A95E1F788E0E5E0F2E0DE0184
S1130370969601900D928A95E1F7CE0186969F9309
S11303808F9385E091E09F938F93CE014C969F933A
S11303908F9380EC91E09F938F938E010F5F1F4F9B
S11303A01F930F930E945103C8010E9494002FEFE2
S11303B08AE197EB215080409040E1F700C00000B3
S11303C081E090E090931502809314020FB6F894A4
S11303D0DEBF0FBECDBFAD960FB6F894DEBF0FBE25
S11303E0CDBFDF91CF911F910F9108950F931F936C
S11303F0CF93DF93CDB7DEB76E970FB6F894DEBF19
S11304000FBECDBF8C0188E0ECEAF1E0DE011B9663
S113041001900D928A95E1F71C8A1B8A88E0E6EB2D
S1130420F1E0DE01559601900D928A95E1F71E8E5A
S11304301D8E47E050E0B801CE0101960E944203B0
S11304408AE089871A86BE016F5F7F4FCE010B96C3
S11304500E943903892B79F48BB180588BB9B80188
S1130460625F7F4F41E150E083E593E00E944203E5
S11304701092650317C0BE016F5F7F4FCE01459692
S11304800E943903892B71F48BB180588BB9B80160
S1130490665F7F4F41E150E083E593E00E944203B1
S11304A0109265036E960FB6F894DEBF0FBECDBFF3
S11304B0DF91CF911F910F910895CF93DF931F92F6
S11304C0CDB7DEB78983298180E091E09F938F9334
S11304D01F922F9382E091E09F938F938DE092E09F
S11304E09F938F9382EE92E09F938F930E94510388
S11304F082EE92E00E9494000FB6F894DEBF0FBE25
S1130500CDBF0F90DF91CF9108951F920F920FB638
S11305100F9211242F933F934F935F936F937F9385
S11305208F939F93AF93BF93EF93FF938091C600F4
S113053080931802E0911602F0911702809118023C
S1130540E251FD4F8083809118028A3079F58091C1
S11305501602909117029C012F5F3F4F30931702B0
S113056020931602FC01E251FD4F2AE02083809182
S11305701602909117029C012F5F3F4F3093170290
S113058020931602FC01E251FD4F108210921702D3
S1130590109216028EEE92E00E94F60184E6EEEED0
S11305A0F2E0DF011D928A95E9F70DC080911802EF
S11305B08D3049F080911602909117020196909324
S11305C0170280931602FF91EF91BF91AF919F9113
S11305D08F917F916F915F914F913F912F910F90E8
S11305E00FBE0F901F9018951F920F920FB60F9287
S11305F011242F933F934F935F936F937F938F9324
S11306009F93AF93BF93EF93FF938091CE0080931A
S1130610E1028091140290911502019721F48091D6
S1130620E1020E945D02FF91EF91BF91AF919F9112
S11306308F917F916F915F914F913F912F910F9087
S11306400FBE0F901F901895559A569A579A5D9819
S11306505E985F980E945D000E9476000E94B6003A
S11306600E9400010E94920190E28BB189278BB90C
S1130670FCCFFB01DC018D91019080190110D9F3AD
S1130680990B0895FB01DC014150504048F0019062
S11306900D920020C9F701C01D9241505040E0F76F
S11306A00895AEE0B0E0E7E5F3E00C94F9050D89B8
S11306B01E8986E08C831A8309838FEF9FE79E83CC
S11306C08D83AE01475E5F4F6F89788DCE010196B1
S11306D00E947303EF81F885E00FF11F10822E96BC
S11306E0E4E00C941506ACE0B0E0E9E7F3E00C9428
S11306F0EB057C016B018A01FC0117821682838160
S113070081FFBDC1CE0101964C01F7019381F60131
S113071093FD859193FF81916F01882309F4ABC107
S1130720853239F493FD859193FF81916F01853270
S113073029F4B70190E00E945B05E7CF512C312CDE
S113074020E02032A0F48B3269F030F4803259F08A
S1130750833269F420612CC08D3239F0803339F44E
S1130760216026C02260246023C0286021C027FDA8
S113077027C030ED380F3A3078F426FF06C0FAE08F
S11307805F9E300D1124532E13C08AE0389E300D25
S11307901124332E20620CC08E3221F426FD6BC14D
S11307A0206406C08C3611F4206802C0883641F4F7
S11307B0F60193FD859193FF81916F018111C1CF62
S11307C0982F9F7D9554933028F40C5F1F4FFFE3BF
S11307D0F9830DC0833631F0833771F0833509F026
S11307E05BC022C0F801808189830E5F1F4F4424BF
S11307F04394512C540115C03801F2E06F0E711C62
S1130800F801A080B18026FF03C0652D70E002C00E
S11308106FEF7FEFC5012C870E9450052C018301E7
S11308202C852F77222E17C03801F2E06F0E711C31
S1130830F801A080B18026FF03C0652D70E002C0DE
S11308406FEF7FEFC5012C870E9445052C012C8595
S11308502068222E830123FC1BC0832D90E04816C0
S11308605906B0F4B70180E290E00E945B053A9427
S1130870F4CFF50127FC859127FE81915F01B70133
S113088090E00E945B0531103A94F1E04F1A510850
S11308904114510471F7E5C0843611F0893639F5F5
S11308A0F80127FF07C060817181828193810C5F09
S11308B01F4F08C060817181882777FD8095982F2C
S11308C00E5F1F4F2F76B22E97FF09C0909580952B
S11308D0709561957F4F8F4F9F4F2068B22E2AE00D
S11308E030E0A4010E948D05A82EA81844C08537C5
S11308F029F42F7EB22E2AE030E025C0F22FF97FB2
S1130900BF2E8F36C1F018F4883579F0B4C0803723
S113091019F0883721F0AFC02F2F2061B22EB4FE1A
S11309200DC08B2D8460B82E09C024FF0AC09F2FF0
S11309309660B92E06C028E030E005C020E130E022
S113094002C020E132E0F801B7FE07C06081718186
S1130950828193810C5F1F4F06C06081718180E0AA
S113096090E00E5F1F4FA4010E948D05A82EA818C9
S1130970FB2DFF77BF2EB6FE0BC02B2D2E7FA514AB
S113098050F4B4FE0AC0B2FC08C02B2D2E7E05C064
S11309907A2C2B2D03C07A2C01C0752C24FF0DC09A
S11309A0FE01EA0DF11D8081803311F4297E09C016
S11309B022FF06C07394739404C0822F867809F0D2
S11309C0739423FD13C020FF06C05A2C731418F42B
S11309D0530C5718732C731468F4B70180E290E039
S11309E02C870E945B0573942C85F5CF731410F447
S11309F0371801C0312C24FF12C0B70180E390E006
S1130A002C870E945B052C8522FF17C021FF03C0A1
S1130A1088E590E002C088E790E0B7010CC0822F1F
S1130A20867859F021FD02C080E201C08BE227FDE7
S1130A308DE2B70190E00E945B05A51438F4B7017C
S1130A4080E390E00E945B055A94F7CFAA94F401E6
S1130A50EA0DF11D8081B70190E00E945B05A110B1
S1130A60F5CF332009F451CEB70180E290E00E9423
S1130A705B053A94F6CFF7018681978102C08FEF28
S1130A809FEF2C96E2E10C940706FC01059061505F
S1130A9070400110D8F7809590958E0F9F1F089590
S1130AA0FC016150704001900110D8F78095909539
S1130AB08E0F9F1F08950F931F93CF93DF93182FCB
S1130AC0092FEB018B8181FD03C08FEF9FEF20C0C5
S1130AD082FF10C04E815F812C813D8142175307F4
S1130AE07CF4E881F9819F012F5F3F4F398328838C
S1130AF0108306C0E885F985812F0995892B29F78C
S1130B002E813F812F5F3F4F3F832E83812F902F74
S1130B10DF91CF911F910F910895FA01AA272830F0
S1130B2051F1203181F1E8946F936E7F6E5F7F4FB6
S1130B308F4F9F4FAF4FB1E03ED0B4E03CD0670F32
S1130B40781F891F9A1FA11D680F791F8A1F911D85
S1130B50A11D6A0F711D811D911DA11D20D009F4D5
S1130B6068943F912AE0269F11243019305D319317
S1130B70DEF6CF010895462F4770405D4193B3E000
S1130B800FD0C9F7F6CF462F4F70405D4A3318F0A7
S1130B90495D31FD4052419302D0A9F7EACFB4E058
S1130BA0A6959795879577956795BA95C9F7009710
S1130BB06105710508959B01AC010A2E06945795B1
S1130BC0479537952795BA95C9F7620F731F841F08
S1130BD0951FA01D08952F923F924F925F926F929E
S1130BE07F928F929F92AF92BF92CF92DF92EF92B9
S1130BF0FF920F931F93CF93DF93CDB7DEB7CA1B3A
S1130C00DB0B0FB6F894DEBF0FBECDBF09942A8864
S1130C10398848885F846E847D848C849B84AA840C
S1130C20B984C884DF80EE80FD800C811B81AA8199
S1130C30B981CE0FD11D0FB6F894DEBF0FBECDBF64
S10B0C40ED010895F894FFCFC3
S1130C481B451B53303139322E3136382E34392E68
S1130C58310041542B50325046494E443D353030D2
S1130C68302C320A0D0061742B70327073657477FE
S1130C7870733D506F736974696F6E736D6F6475CB
S1130C886C2C303030362C303030312C313132321B
S1130C983333343435353636373738383131323200
S1130CA83333343435353636373738380A0D00613E
S1130CB8742B7032707365746465763D302C3831EA
S1130CC82C31312C31312C323338382C45550A0D1E
S1130CD80061742B776D3D330A0D0061742B7772B4
S1130CE8786163746976653D310A0D007032702D40
S1130CF86465760000007032762D666F750000001A
S1130D082573257325730061742B70327070643DEC
S1130D180061742B703270677270666F726D3D007B
S1130D282C362C302C2C312C302C300A0D006174CC
S1130D382B6E646863703D310A0D0061742B6E6319
S1130D487463703D002C383238380A0D0025732539
S1070D586325730098
S9030000FC
