:100000000C943E000C945B000C945B000C945B0021
:100010000C945B000C945B000C945B000C945B00F4
:100020000C945B000C945B000C945B000C945B00E4
:100030000C945B000C945B000C945B000C945B00D4
:100040000C945B000C945B000C945B000C945B00C4
:100050000C941E020C945B000C945B000C945B00EF
:100060000C945B000C945B000C945B000C945B00A4
:100070000C945B000C945B000C945B0011241FBE7D
:10008000CFEFD0E1DEBFCDBF11E0A0E0B1E0E0E313
:10009000FBE002C005900D92AC3CB107D9F722E01D
:1000A000ACECB1E001C01D92A734B207E1F70E94A9
:1000B00091020C9496050C9400001092C50081E802
:1000C0008093C400E1ECF0E0808188618083A2EC41
:1000D000B0E08C9186608C93808180688083E0ECB6
:1000E000F0E0808180688083789408951092CD003C
:1000F00081E88093CC00E9ECF0E080818861808326
:10010000EAECF0E080818660808308959091C000E1
:1001100095FD06C0E0ECF0E05F9A908195FFFCCF82
:100120005F988093C6000895E8ECF0E0908195FF19
:10013000FDCF8093CE000895EF92FF920F931F930F
:10014000CF93DF938C017C01C0E0D0E006C0F701C3
:1001500081917F010E9486002196F8010190002084
:10016000E9F73197E01BF10BCE17DF0780F3DF9142
:10017000CF911F910F91FF90EF900895EF92FF9212
:100180000F931F93CF93DF938C017C01C0E0D0E0ED
:1001900006C0F70181917F010E9494002196F80129
:1001A00001900020E9F73197E01BF10BCE17DF0734
:1001B00080F3DF91CF911F910F91FF90EF90089501
:1001C0009BB180E489278BB92FEF88E09DE3215014
:1001D00080409040E1F700C0000080E891E00E947C
:1001E0009C002FE784E89EE1215080409040E1F799
:1001F00000C000008EE591E00E949C002FE784E89B
:100200009EE1215080409040E1F700C0000085E170
:1002100091E00E949C002FE784E89EE121508040FD
:100220009040E1F700C0000080E091E00E949C0057
:100230009BB180E489278BB908950F931F93CF93C7
:10024000DF93CDB7DEB7C757D1090FB6F894DEBF3D
:100250000FBECDBF2AEA30E489EF93E02150304051
:1002600080409040D9F70000CE0187599F4F2AE087
:10027000E5EAF1E0DC0101900D922A95E1F79E019B
:100280002D583F4F45E0E7ECF1E0D90101900D9288
:100290004A95E1F73F932F9324E332E03F932F9366
:1002A0009F938F938EE991E09F938F938E01025DD0
:1002B0001F4F1F930F930E94C502C8010E949C000C
:1002C0002AE230E58EEF90E02150304080409040AF
:1002D000D9F70000CE01845B9F4F2FE0EFEAF1E0F9
:1002E000DC0101900D922A95E1F79E01255A3F4FBE
:1002F0004EE0EEEBF1E0D90101900D924A95E1F765
:100300003F932F9324E332E03F932F939F938F9358
:100310008EE991E09F938F930D5211091F930F93D4
:100320000E94C502C8010E949C002FEF3AE187EBB2
:10033000215030408040E1F700C000000FB6F89433
:10034000DEBF0FBECDBFC958DF4F0FB6F894DEBF7A
:100350000FBECDBFDF91CF911F910F9108950F93E5
:100360001F93CF93DF93CDB7DEB76E970FB6F89498
:10037000DEBF0FBECDBF8C0188E0EAE8F1E0DE0110
:100380001B9601900D928A95E1F71C8A1B8A88E0E2
:10039000E4E9F1E0DE01559601900D928A95E1F7CE
:1003A0001E8E1D8E47E050E0B801CE0101960E94DE
:1003B000B6028AE089871A86BE016F5F7F4FCE0141
:1003C0000B960E94AD02892B99F48BB180588BB9A2
:1003D000B801625F7F4F41E150E084E392E00E9408
:1003E000B6021092460284E392E00E94BE001BC057
:1003F000BE016F5F7F4FCE0145960E94AD02892BF3
:1004000091F48BB180588BB9B801665F7F4F41E1A1
:1004100050E084E392E00E94B6021092460284E328
:1004200092E00E94BE006E960FB6F894DEBF0FBE3B
:10043000CDBFDF91CF911F910F9108951F920F9221
:100440000FB60F9211242F933F934F935F936F93A7
:100450007F938F939F93AF93BF93EF93FF9380917D
:10046000C6008093CE018091CE010E949400E0915D
:10047000CC01F091CD018091CE01E053FE4F8083FD
:100480008091CE018A3079F58091CC019091CD0197
:100490009C012F5F3F4F3093CD012093CC01FC0195
:1004A000E053FE4F2AE020838091CC019091CD0152
:1004B0009C012F5F3F4F3093CD012093CC01FC0175
:1004C000E053FE4F10821092CD011092CC0180EDCE
:1004D00091E00E94AF0184E6E0EDF1E0DF011D92C2
:1004E0008A95E9F70DC08091CE018D3049F0809159
:1004F000CC019091CD0101969093CD018093CC01D8
:10050000FF91EF91BF91AF919F918F917F916F91EB
:100510005F914F913F912F910F900FBE0F901F90C1
:100520001895559A569A579A5D985E985F980E94CA
:100530005D000E9476000E94E0000E941D0190E292
:100540008BB189278BB92FE734E88EE121503040F9
:100550008040E1F700C00000F3CFFB01DC018D918A
:10056000019080190110D9F3990B0895FB01DC016A
:100570004150504048F001900D920020C9F701C051
:100580001D9241505040E0F70895AEE0B0E0EBEC32
:10059000F2E00C946D050D891E8986E08C831A8328
:1005A00009838FEF9FE79E838D83AE01475E5F4F88
:1005B0006F89788DCE0101960E94E702EF81F88560
:1005C000E00FF11F10822E96E4E00C948905ACE058
:1005D000B0E0EDEEF2E00C945F057C016B018A0166
:1005E000FC0117821682838181FFBDC1CE01019675
:1005F0004C01F7019381F60193FD859193FF819161
:100600006F01882309F4ABC1853239F493FD8591DC
:1006100093FF81916F01853229F4B70190E00E9428
:10062000CF04E7CF512C312C20E02032A0F48B32C4
:1006300069F030F4803259F0833269F420612CC0C3
:100640008D3239F0803339F4216026C02260246075
:1006500023C0286021C027FD27C030ED380F3A3075
:1006600078F426FF06C0FAE05F9E300D1124532E69
:1006700013C08AE0389E300D1124332E20620CC046
:100680008E3221F426FD6BC1206406C08C3611F435
:10069000206802C0883641F4F60193FD859193FFEE
:1006A00081916F018111C1CF982F9F7D9554933017
:1006B00028F40C5F1F4FFFE3F9830DC0833631F040
:1006C000833771F0833509F05BC022C0F801808167
:1006D00089830E5F1F4F44244394512C540115C04D
:1006E0003801F2E06F0E711CF801A080B18026FF86
:1006F00003C0652D70E002C06FEF7FEFC5012C874E
:100700000E94C4042C0183012C852F77222E17C050
:100710003801F2E06F0E711CF801A080B18026FF55
:1007200003C0652D70E002C06FEF7FEFC5012C871D
:100730000E94B9042C012C852068222E830123FC01
:100740001BC0832D90E048165906B0F4B70180E233
:1007500090E00E94CF043A94F4CFF50127FC8591F4
:1007600027FE81915F01B70190E00E94CF04311014
:100770003A94F1E04F1A51084114510471F7E5C061
:10078000843611F0893639F5F80127FF07C06081FA
:100790007181828193810C5F1F4F08C060817181DC
:1007A000882777FD8095982F0E5F1F4F2F76B22EEA
:1007B00097FF09C090958095709561957F4F8F4FF9
:1007C0009F4F2068B22E2AE030E0A4010E9401056C
:1007D000A82EA81844C0853729F42F7EB22E2AE00F
:1007E00030E025C0F22FF97FBF2E8F36C1F018F40C
:1007F000883579F0B4C0803719F0883721F0AFC060
:100800002F2F2061B22EB4FE0DC08B2D8460B82E28
:1008100009C024FF0AC09F2F9660B92E06C028E0A9
:1008200030E005C020E130E002C020E132E0F80114
:10083000B7FE07C060817181828193810C5F1F4F79
:1008400006C06081718180E090E00E5F1F4FA401BF
:100850000E940105A82EA818FB2DFF77BF2EB6FE1B
:100860000BC02B2D2E7FA51450F4B4FE0AC0B2FC91
:1008700008C02B2D2E7E05C07A2C2B2D03C07A2C80
:1008800001C0752C24FF0DC0FE01EA0DF11D808111
:10089000803311F4297E09C022FF06C0739473943B
:1008A00004C0822F867809F0739423FD13C020FFC3
:1008B00006C05A2C731418F4530C5718732C731465
:1008C00068F4B70180E290E02C870E94CF04739413
:1008D0002C85F5CF731410F4371801C0312C24FF88
:1008E00012C0B70180E390E02C870E94CF042C85D2
:1008F00022FF17C021FF03C088E590E002C088E70F
:1009000090E0B7010CC0822F867859F021FD02C01B
:1009100080E201C08BE227FD8DE2B70190E00E94EA
:10092000CF04A51438F4B70180E390E00E94CF040F
:100930005A94F7CFAA94F401EA0DF11D8081B70112
:1009400090E00E94CF04A110F5CF332009F451CEDE
:10095000B70180E290E00E94CF043A94F6CFF7010D
:100960008681978102C08FEF9FEF2C96E2E10C9475
:100970007B05FC010590615070400110D8F780950F
:1009800090958E0F9F1F0895FC016150704001905B
:100990000110D8F7809590958E0F9F1F08950F93A3
:1009A0001F93CF93DF93182F092FEB018B8181FDCC
:1009B00003C08FEF9FEF20C082FF10C04E815F8188
:1009C0002C813D81421753077CF4E881F9819F0116
:1009D0002F5F3F4F39832883108306C0E885F98550
:1009E000812F0995892B29F72E813F812F5F3F4F5A
:1009F0003F832E83812F902FDF91CF911F910F91F5
:100A00000895FA01AA27283051F1203181F1E894A4
:100A10006F936E7F6E5F7F4F8F4F9F4FAF4FB1E0F1
:100A20003ED0B4E03CD0670F781F891F9A1FA11DEC
:100A3000680F791F8A1F911DA11D6A0F711D811DED
:100A4000911DA11D20D009F468943F912AE0269FB2
:100A500011243019305D3193DEF6CF010895462F11
:100A60004770405D4193B3E00FD0C9F7F6CF462FF2
:100A70004F70405D4A3318F0495D31FD405241935B
:100A800002D0A9F7EACFB4E0A69597958795779518
:100A90006795BA95C9F700976105710508959B019F
:100AA000AC010A2E06945795479537952795BA9528
:100AB000C9F7620F731F841F951FA01D08952F9201
:100AC0003F924F925F926F927F928F929F92AF92DE
:100AD000BF92CF92DF92EF92FF920F931F93CF932B
:100AE000DF93CDB7DEB7CA1BDB0B0FB6F894DEBFC2
:100AF0000FBECDBF09942A88398848885F846E84E8
:100B00007D848C849B84AA84B984C884DF80EE8031
:100B1000FD800C811B81AA81B981CE0FD11D0FB63A
:100B2000F894DEBF0FBECDBFED010895F894FFCF5E
:100B300041542B50325046494E443D3230303030D3
:100B40002C320A0D0061742B7032707365747770EB
:100B5000733D506F736974696F6E736D6F64756CFC
:100B60002C303030362C303030312C313132323381
:100B7000333434353536363737383831313232332D
:100B800033343435353636373738380A0D0061742A
:100B90002B7032707365746465763D302C38312C5F
:100BA00031312C31312C323338382C45550A0D0077
:100BB00061742B776D3D330A0D007032702D6465C2
:100BC000760000007032762D666F75000000257388
:100BD000257325730061742B70327070643D006161
:100BE000742B703270677270666F726D3D002C36B8
:0C0BF0002C302C2C312C302C300A0D0045
:00000001FF
